:020000042000DA
:1000000000980020A9040020B1040020C9040020A9
:1000100000000000000000000000000000000000E0
:10002000000000000000000000000000E1040020CB
:100030000000000000000000F9040020FB04002084
:100040005B280020053103000D310300DB28002070
:10005000E72800208D3103003D290020452900209C
:10006000FD040020531200205D290020AD31030063
:1000700057810200FD0400204B1B02004B1B0200B5
:100080004B1B0200FD0400204B1B02001D12002030
:100090002112002025120020291200202D120020FC
:020000042000DA
:1001600032000000190600203B10002065370020F7
:10017000000000000000000063800200BD8002005B
:10018000870E0020FB8002001981020035810200E9
:100190005D8102002D280020FF050020570E002061
:1001A0006F0E002000000000000000003F00000073
:1001B000F48B002000040000740B080048010000CC
:1001C0006807080000040000C80C080020050000B3
:1001D000000000002000000048000000580000005F
:1001E0006800000004010000160100002801000062
:1001F0002E010000202A00008E2E000001000000C9
:1002000088130000C5100020E9600200FD93020081
:10021000DF1D002019280300A57402002D240020F2
:1002200003000000D52002007D37002004000000FC
:10023000D74902000F490200831D020063910200AA
:10024000B7910200BF910200078202007182020092
:10025000EC620020AD83020093840200418502001D
:1002600015860200378602005F860200758602004E
:10027000F9870200258902005D8A0200D38C020002
:10028000098D02000F900200438D0200278E0200AC
:10029000F98E0200478F0200C90D0020D58F0200A1
:1002A00049510200775102002F5202001000000055
:1002B00020030000803E000000000000000000005D
:020000042000DA
:1002C000504600030003983A6400F401B80B000C98
:1002D000B80B120030003000CD009A01120024004B
:1002E00030006400B0001800280012001200D0078F
:1002F0000000FFFF00000000000000000000000000
:100300001F000002444131343538302D30310000B7
:1003100000000000000000000000000000000000DD
:0403200000000000D9
:020000042000DA
:10034000FFFF010000C201000000000000000000EB
:100350000000F4010100011B0A071AFFD200021578
:10036000585CDE931B0142CC9A1325009BEDC65EC0
:1003700000000000C5000000000009FF00605257A7
:100380002D424C450000000000000000000000006D
:100390000000000000000000000044413134353806
:1003A00078000000000000000000000000000000D5
:1003B000000000000000000000000000000000003D
:1003C000000000000000000000000000000000002D
:1003D0000000000000000000010000CAEA80D00711
:0403E000064064323D
:020000042000DA
:100440000348854605F028FB00480047C720020006
:100450000098002010B5114906200880FF2010499F
:10046000013008600F4988683E2290432E30886032
:100470000021052000070180028A0F231B021A4376
:1004800002820122D204032308461B038418216040
:10049000001D9842FADB62B610BD00000034005027
:1004A00080E100E0003300501548804715480047C0
:1004B00004207146084203D0EFF30980124908472F
:1004C000EFF308801049084704207146084203D022
:1004D000EFF309800D490847EFF308800B490847FF
:1004E00004207146084203D0EFF309800849084709
:1004F000EFF3088006490847FEE7FEE7FEE7000045
:100500005504002041040020F509002015050020B5
:100510008705002005221207518A80231943518242
:10052000114903680B6043684B6083688B60C36844
:10053000CB6003690B6143694B6183698B61C0695F
:10054000C8610A48836A0B62C36A4B62036B8B62A1
:10055000C36BCB62436B0B63806B4863908A8006EE
:1005600001D500BE7047FEE70018080000ED00E06E
:1005700002890889B849101A80B2884201D901203D
:1005800070470020704781692039897F082904D28B
:10059000B24A8900515881617047FEE7B148B049BD
:1005A0000161B1494161B1498161B149C161B1495B
:1005B0000162B1494162B1498162B149C162B14947
:1005C0000163B1494163B1498163B149C163AF4935
:1005D000A4485C3140300160AE494160AE49816061
:1005E000AE49C1600120AE49C0060860AD49CA6984
:1005F0001202120ACA61AA4980390860704710B510
:10060000A9490020086000F0CBFB01208007016BA6
:1006100049004908016310BD1CB5A44901200870B8
:10062000A34EC820308000207080A24F08257D8016
:1006300005F044FA05F0EAFD00F0D8FA9E4801788A
:1006400001709E4801780170012005F03DFA6C01AF
:100650000D202146800105F03DFA01F0FBFF00F07E
:1006600055FC00F0EDFA042000F0EFF8072000F050
:10067000ECF80A2000F0E9F8062000F0E6F80B207C
:1006800000F0E3F8012000F0E0F8022000F0DDF8CF
:10069000002000F0DAF88A48006805F021FAA00589
:1006A00001682143016000F02AF986480068AA2801
:1006B00005D1142000F032FB142000F03DFB03F0C4
:1006C00069FCFFF79CFFA22005242407E0827E48F6
:1006D0004188E0229143A0314180012005F006FAD3
:1006E00005F00AFA022803D005F006FA012807D11E
:1006F0003D80A08A8006FCD4618A8020814361828B
:10070000C82030807D80022704252089000622D55C
:1007100001208007006B00041DD405F0F3F9C00729
:1007200019D1042005F0F4F9019005F0F7F90198CA
:10073000002810D00020019062480068AA2802D149
:10074000142000F0F9FA042101A805F0EDF90028C1
:1007500001D000F047FB72B601F0A4FF69460870B3
:10076000042806D002280CD003280AD0012867D01C
:1007700067E056480078012802D00320087000E0A6
:100780000F70208A284320825148C06901280878C8
:1007900011D903284BD105F0CDF9002847D005F039
:1007A000CFF9002843D0032005F0D0F900283ED02F
:1007B0004848077008E0032839D105F0C7F9002838
:1007C00035D0444901200870364801692943016148
:1007D000618A202291436182218A394321826946BC
:1007E00009780229618A24D0294361827F212288E5
:1007F000890180231A4322800022521CD2B20A2A85
:10080000FBD3628A10231A436282334A491E516124
:1008100021888022914321802B494A88FF2301337C
:100820009A434A8030BF0169A943016109E06846E3
:10083000BFE729436182618A102291436182EBE71D
:1008400030BF62B6C82030805FE7C106C90E012004
:10085000884022490860704730750000CC62002053
:10086000942703000084004062B600DF28A3020042
:10087000704701DF1CCA0200F8BD02DF40CB020056
:10088000F5E703DF84D4020004DF89B0BC33020043
:10089000F8BD05DFF8BD06DFEC0C030070BD07DF17
:1008A00080E100E000ED00E08C0308000080002003
:1008B000003100500033005000000800202A0800DA
:1008C000049000200C8000202000005054020800FA
:1008D000E0010020C40608000080004080E200E043
:1008E000704700003E480178002902D08021417005
:1008F00070473C49002008703B49C8707047384831
:100900000178002902D081214170704735490120CA
:1009100008703549C870704731480178002902D005
:100920008221417070472F49022008702E49012012
:10093000C87070472A488178002904D0491E0906EA
:10094000090E817017D142780021002A04D0920745
:10095000920F0270417004E00278002A01D0521E0A
:1009600002701206120E017005D0012A02D0022A6E
:1009700001D1D1E7C3E7704710B5194CA078401CEE
:10098000A0702078002805D105F0B6F8421CFFF7CA
:10099000A9FF227010BD12490120C870704710498C
:1009A0000020C87070470E48C07870470020EFF3F1
:1009B0001081012282F31088052212071289120683
:1009C00005D40A48028901231A43028118460029E6
:1009D00000D0012181F310887047054800787047E6
:1009E0000180002054020800C606080000330050B1
:1009F0002B80002005221207118A0423194311823B
:100A0000118A02231943118211894023194311814C
:100A1000174B01211960174B08211980518A802337
:100A200019435182144903680B6143684B61836821
:100A30008B61C368CB6103690B6243694B62836955
:100A40008B62C069C8620D48836A0B63C36A4B63DB
:100A5000036B8B63C36BCB63436B074940310B6004
:100A6000806B4860908A800601D500BE7047FEE723
:100A700080E200E0003300504018080000ED00E084
:100A800070B56A480022C16AD243002901D01146DC
:100A900000E00121CB17CC0B5B0423434C04C16263
:100AA00063490D684E682C4333430C604B60C36947
:100AB000002B01D0144600E00124E317650EDB0192
:100AC0002B43C4610D68E4014E682C4333430C6032
:100AD0004B60836A002B01D0144600E00124E31729
:100AE000250C1B042B4384620D6824044E682C43A0
:100AF00033430C604B600368002B01D0134600E0C9
:100B0000012303600D68DC174E682B4334430B60F0
:100B10004C608369002B01D0144600E00124E317E8
:100B2000A50E9B012B4384610D68A4014E682C43E4
:100B300033430C604B604369002B01D0144600E046
:100B40000124E317E50E5B012B4344610D6864014A
:100B50004E682C4333430C604B60C368002B00D1BC
:100B60000122C260D017530FC00018430C68D20096
:100B70004B68224318430A60486070BD38B50024B2
:100B8000FF220121234601320846009405F03CFA79
:100B9000032500232D022A4607211846009405F05C
:100BA00033FA00232A4619460120009405F02CFA56
:100BB0000120009008232A460321002005F024FA92
:100BC000002107232A460846009405F01DFA062353
:100BD0002A4619460020009405F016FA0523002243
:100BE00019461046009405F00FFA38BD10B50524DB
:100BF0002407208A022188432082A08A0007FCD58E
:100C00000C484188FF22013211434180FFF7C6FCA6
:100C1000FFF7B4FF0721002003F062FD03F0A6FEFA
:100C2000608A20210843608210BD000028900020C7
:100C30002090002020000050A44900204860704708
:100C400070B5052109070889302290430881088979
:100C5000802210430881088980088000401C088198
:100C6000088908231843088199480488144304809C
:100C70004C8A9C434C820D89402425430D810D8A6A
:100C80000426B5430D828D8AAD07FCD58F4E002515
:100C9000756005880126354305804589AE058D4D73
:100CA000068801D52E4300E0AE43068005887826ED
:100CB000B5432835058005880626354305804D8ACD
:100CC0001D434D820388934303800A89A2430A810E
:100CD0004089800503D57E49052060318880012048
:100CE000800701688215914301607B4801683F22BB
:100CF00052029143421489180160016802031143B2
:100D0000016070BD0321754809028181082242807B
:100D10000021491C9629FCD3828070477049488085
:100D200008880322104308800888042210430880A2
:100D300066490120087070477CB5644C2178002911
:100D40002DD067490A885207FCD4CA880092898846
:100D500001911104019A8918009162494843009950
:100D600004F0FAFE0090002020700098A060009827
:100D700004F006FE054629465B4804F0ACFD0A2156
:100D800004F0E7FD04F003FEE060284604F013FEE3
:100D9000564A574B04F0E6FE04F021FE20617CBD6C
:100DA00010B54A484168AA2905D07C205149081845
:100DB00004F0DEFE10BDC06819210903884200D985
:100DC00000BEFF20EB30F1E770B5414C6088C006F3
:100DD000050F04F0D3FE61881E2291436A0011437F
:100DE000618070BD10B544490120C863C86B0028FC
:100DF000FCD101208007C16940480268914201D2BC
:100E00000022026019238A1ADB019A4212D3016080
:100E100004F0BAFE3A4A1188884201D9411A00E02A
:100E2000091A89B2182905D31080012004F0B2FEF6
:100E300004F0B6FE10BD08B524498968484331491D
:100E400004F08AFE009008BD08B52049C9684843EF
:100E5000800A009008BD08B51C494968002903D0E4
:100E6000FFF7E9FF009008BD04F0A0FEFAE708B51F
:100E700016494968002903D0FFF7E6FF009008BD36
:100E800004F09AFEFAE708B51F4901204A695206A4
:100E9000D20F13D04A699206D20F0FD000220A61F6
:100EA0000092FF225F32009B5B1C00939342FAD3B7
:100EB0004969C907C90F02D004F084FE002008BDAB
:100EC00040183721C00009014018704708800020F1
:100ED00020000050001000000002004020300050B0
:100EE000001600500024F400002474497B14AE471F
:100EF000E17A443F01120000C00000407C04080079
:100F00007804080040420F000010005030B58D4AB0
:100F10008D49D005048880231C4304808B4C65894F
:100F20002D0701D4521EFAD2894C01222260894C2D
:100F30000A882280884A4988118001889943018063
:100F400030BD0020704770477047704700207047E1
:100F500001218907086B0722104308637047704717
:100F600010B57F497D4808607E494C2008807D4B44
:100F70007D4A203B1A827E497C4848807E487D49D4
:100F800001807C49193141802221418181218900E0
:100F900001827A4941827A4901837849113141833A
:100FA000754978482031888041217748090181803E
:100FB0007649C180754C1034C48101824182891CFC
:100FC0008182611FC182FF214631018370494183C3
:100FD0007049592008806F486F4C203004804324AA
:100FE00044806E4C4C82D5218180FF21D331018118
:100FF0006B4941816B4981816C496B480880594834
:101000006B4960384180C18810242143C180624906
:101010000A390181534C6749403C61805A8208215A
:1010200041814D485B4900884039088249486249FE
:101030000088088010BD4008704700B58BB05F4A3B
:1010400042625F4A82625F4A42615F4AC2625F4AAD
:1010500002605F4A02625F4A42605F4AC261404A80
:101060003E48002110603E484038026B03129A430C
:101070000263426B1F231B049A4303231B04D218F1
:10108000426356480268C3129A430260026803131F
:101090009A43026068464154491CC9B22829FAD3D0
:1010A000014628224E4804F093FDFFF759FF04F053
:1010B0006BFD4C490880002004F06CFD04F070FDCD
:1010C0000BB000BD10B5264A0F212448090210605C
:1010D00023484038426B1F231B049A4303231B04FD
:1010E000D218426300060268D208D20002600520CE
:1010F0000007028992089200521C0281028908238B
:101100001A430281028A0A43028237480068002893
:1011100008D10E484189890504D501887822914378
:1011200008310180FFF71CFF3048006F007800286D
:1011300004D02F4800880B496039C880012004F092
:10114000D5FC10BDA0860100087F040020000050DF
:1011500000800040560208004A0308004C0554076E
:1011600080000040602C00507F7F0000AC29000010
:101170000022005009090000002400502204000051
:1011800030D00000EE110000002500502E020000BB
:1011900044200000402800500D950000024200004D
:1011A000E4DC00001092000053780000002A005098
:1011B0008B1000009DD5000000260050430F00203A
:1011C000470F00204D0F0020510F0020490F002035
:1011D0005F0F00204B0F002037100020000200405E
:1011E00020000800780408000C800020E0010020A6
:1011F0005204080010B5044604F054FF0C49A00046
:1012000040188038406B002801D0804710BDE106AF
:10121000C90E012088400749086010BD1320E9E786
:101220001420E7E71520E5E71620E3E71720E1E7BC
:10123000C890002080E200E03B480078002802D0FF
:101240000020C04370470120384940020860002058
:1012500070470520000701883022914301800188F2
:101260008908890001808088C0060BD5304801219B
:10127000818001888022914301802B4840680028AA
:1012800000D000477047F0B505242407A588102634
:101290003543A580264C00252581D2B262802A469E
:1012A000D7000546FD40EEB255002D196E810E4661
:1012B000FE40F6B26E82521C042AF1DBE28903255D
:1012C0002D020004800FAA4300020243E281E08A5B
:1012D0000904890FA84309020843E0820120A08085
:1012E000144A410211609A06920E80322280124BFB
:1012F0001A68FF242402A243840322431A600A4A84
:10130000137803430948137080380160F0BD064824
:101310000178490849000170054801218180018850
:1013200080229143018087E71C80002080E100E05B
:101330000001005080E200E008E400E010B54249FE
:1013400008804249884201D9642010BD40494118B3
:1013500078290ED863210901401A04F006FB3D49A3
:1013600004F0B9FA3C4904F079FA04F010FB1C309F
:1013700013E03749394CE0314118DF290FD85521A6
:101380000901401A04F0F1FA214604F0A4FA3449A4
:1013900004F064FA04F0FBFA001DC0B210BD31493C
:1013A0004118DF290DD847210901401A04F0DDFA60
:1013B000214604F090FA022104F0CBFA04F0E7FA97
:1013C000EBE7002010BD274910B54942884209D3F8
:1013D00049424018642148434721C90004F0FEFBFC
:1013E000C0B210BD002010BD70B5012189020546B4
:1013F0004E00304600F03AF8072000F044F800F0C4
:1014000050F804460021304600F030F8072000F084
:101410003AF800F046F8001984B200F03EF812499C
:1014200020090A780001002A01D1FF220A70012D4B
:1014300003D0022D04D0002070BDFFF77FFF70BDE8
:10144000FFF7C1FF70BD0000DC900020A90600007E
:10145000CFF9FFFF0000F24200009042000060431D
:101460000000C0418FFBFFFF2480002008430121C2
:10147000890302460A4312490A80124A104308802F
:101480000B20488070470E490A880F239B010007F4
:101490009A43800D02430A80704709490020088062
:1014A000704707480849028802231A430280491EF0
:1014B00002D302889207FAD4002101814089704743
:1014C0000015005001400000A0860100F94AD160DB
:1014D0009060704710B5012000F0ABFA05200002C3
:1014E00000F0E8FAC0B210BD70B50024F24DFFF76D
:1014F000F1FFC00704D0641CAC42F8D30020C04305
:1015000070BD70B5FFF7F0FF002817D100F091FA19
:1015100000F03CFA9F2000F0B6FA002000F0B3FA89
:101520000504002000F0AFFA04022C43002000F074
:10153000AAFA2043054600F030FA284670BD70B57F
:10154000FFF7DFFFDB4CDD4A002114234B43D55866
:101550009B185B681D4003409D420ED1142308B2C6
:101560004B4320809B189D68A560DB68E3601423D3
:1015700058438018606048B270BD491C89B2032985
:10158000E3D300206060401E70BD70B5FFF7ACFF74
:10159000002815D100F04DFAC74E0025062000F0B6
:1015A00089FA0024FFF796FFC10703D1800701D510
:1015B000002070BD641CB442F4D36D1C322DEDD3F9
:1015C0000020C04370BD70B5FFF78EFF002815D115
:1015D00000F02FFAB84E0025502000F06BFA0024DE
:1015E000FFF778FFC10703D1800701D5002070BD48
:1015F000641CB442F4D36D1C322DEDD30020C043E3
:1016000070BD70B5FFF770FF002811D100F011FA1E
:10161000A94E0025042000F04DFA0024FFF75AFFE0
:10162000800707D0641CB442F8D36D1C322DF1D36F
:101630000020C04370BD10B50446FFF755FF0028D9
:1016400008D1012000F0F5F9E01DF93000F032FA80
:10165000FFF74AFF10BD70B5064696480D468068F4
:101660005119814201D9441B00E01446FFF73CFFA9
:1016700000281AD1022000F0DCF900F087F90321DC
:1016800028460906084300F0FEF9002000F0D1F9D1
:10169000002505E0002000F0F6F930706D1C761C86
:1016A000A542F7D300F079F9204670BD70B5054624
:1016B00080480E46C0681446824200D984B2FFF7C3
:1016C00013FF00281ED1FFF760FF00281AD1022067
:1016D00000F0AFF900F05AF90121304649060843FD
:1016E00000F0D1F9002000F0A4F905E028786D1C85
:1016F00000F0C9F9641EA4B2002CF7D100F04DF936
:10170000FFF7F2FE70BD70B50D460446FFF73DFFD2
:10171000002802D00020C04370BD022000F089F9EB
:101720002806204300F0C6F9FFF7DEFE70BD10B5B5
:10173000FFF72BFF002802D00020C04310BD00207F
:1017400000F077F9C72000F0B5F9FFF7CDFE40B201
:1017500010BD0020C043704710B5FFF7C5FE00283C
:1017600012D1012000F065F900F010F90920000302
:1017700000F089F9002000F086F9002000F083F9DC
:10178000044600F00AF920B210BD70B5FFF7ACFEB8
:10179000002801D0C11770BD002000F04AF900F008
:1017A000F5F84B2000F06FF9022000F042F900201C
:1017B00000F069F9002000F066F90025044628468B
:1017C00000F061F906462E4300F0E7F83046214666
:1017D00070BDF7B582B0374F0E460091F9681446D8
:1017E0000D46304604F0B8F9401C6843451E002001
:1017F00000F01FF9B868801BA04200D204462646BC
:10180000002719E000988019A84202D900982E1AE2
:10181000761C0298B2B2C0190099FFF747FF002862
:1018200003D00020C04305B0F0BD681C00902148E3
:10183000BF19C0682D18E61BA742E3D33846F2E76C
:1018400010B5FFF751FE002805D100F0F2F8B920DD
:1018500000F030F9002010BD10B5002000F0E9F8CC
:10186000AB2000F027F9002010BD70B5114C0546E3
:101870006068002806D0FFF788FE002805D0002009
:10188000C04370BD0520C04370BDFFF723FE6168F3
:10189000097C884329400843FFF7CDFE70BD10B591
:1018A00004484068407CFFF7E0FF002808D040B2C1
:1018B00010BD0000E0900020400D03000C630020EC
:1018C000FFF735FFF4E770B505462F480E46C068B0
:1018D0001446824200D984B2FFF706FE00281DD1CB
:1018E000FFF753FE002819D1022000F0A2F800F003
:1018F0004DF8012130464906084300F0C4F80020A5
:1019000000F097F804E0284600F0BDF8641EA4B289
:10191000002CF8D100F041F8FFF7E6FD70BDF7B5F7
:1019200082B0194F0E460091F96814460D463046B4
:1019300004F012F9401C6843451E002000F079F8BD
:10194000B868801BA04200D204462646002717E054
:1019500000988019A84202D900982E1A761CB2B2BB
:1019600000990298FFF7AFFF002802D00020C04383
:1019700059E7681C00900448BF19C0682D18E61B81
:10198000A742E5D338464EE7E090002010B54F4817
:101990004178007804F0F4FB10BD10B54B48417855
:1019A000007804F0CBFB10BDF8B50E46154647494C
:1019B0000278079F0A7040781C464870FFF7EDFFD9
:1019C0000520000781880122D2021143818040480E
:1019D00001884908490001800188FF228132914332
:1019E000F20111430180018840229143AA01114371
:1019F0000180018804229143A200114301800188E3
:101A000002229143069A520011430180018801226B
:101A100092039143BA031143018001881822914334
:101A2000089AD200114301800188012211430180EC
:101A3000F8BD27490A88520852000A800A88FF2305
:101A400081339A43C00102430A800888012210436F
:101A50000880704710B51E48018849084900018078
:101A60000520000781880122D20291438180174816
:101A70004178007804F062FB10BD154801884908E0
:101A800049000180704710B5114900230A88D2052A
:101A9000920F012A01D9040C8C80488008888004A8
:101AA000FCD50120C880012A01D988880304488810
:101AB000C01810BD10B50446FFF768FF2046FFF7B9
:101AC000E2FF0446FFF769FF204610BDF0900020BA
:101AD00000120050F0B59B4D2B7005231B079C880E
:101AE000202634439C80984C0023A381964B61268A
:101AF000603B1E801E880627BE4349000E431E80A1
:101B000019881026B1431201114319808105890DEE
:101B100099800121A181218A8906FCD46870F0BDD9
:101B2000894900208881052000078188202291436F
:101B30008180704770B5844B834C834D0822603B95
:101B400081482034203D1A82018A4907FCD5018A48
:101B50008906FCD42188AE8AC907F4D170BD30B59E
:101B60000104784C0B0E784922786039012A02D0A2
:101B7000022A0ED110E0744A00259581C5036478CD
:101B8000ED0F25438D8001249481148AA406FCD492
:101B90000B82C0B2088230BD0202120E0A82F7E741
:101BA00010B50446FFF7C6FF2046FFF7D8FF66488A
:101BB000018A8907FCD5FF226349013260390A8214
:101BC000028A5207FCD5028B002AFCD0088AC0B2D8
:101BD00010BDF0B5044615460846FFF7C0FF5A4948
:101BE00000226039FF235848013304E0068AB60713
:101BF000FCD50B82521CAA42F8D3EFF310830122CA
:101C000082F31088002209E0068B002EFCD00E8A99
:101C100027683E702668761C521C2660AA42F3D3C1
:101C2000002B03D0012080F31088F0BD0020FAE7DC
:101C3000F7B50E46002A09D001204004841B9442C7
:101C400000D314462546FFF775FF08E00020FEBDCF
:101C5000202231466846FFF7BCFF203C2036202C6E
:101C6000F6D2002C04D0224631466846FFF7B1FF79
:101C70002846FEBD30B50C460546FFF75BFF2846FB
:101C8000FFF76DFF3048018A8907FCD52E4960397E
:101C90000C82018A4907FCD5018A8906FCD430BD33
:101CA000F0B506468C4608460121002549048C45BE
:101CB00029D2C0B249120C1AA24200D21446FFF730
:101CC00039FFEFF31087012080F310886046FFF79B
:101CD00046FF1D491C486039028A9207FCD53278BC
:101CE0000A82641E6D1CA4B2761CADB2002CF3D126
:101CF000002F0AD0012181F31088018A4907FCD501
:101D0000018A8906FCD42846F0BD0021F3E7F0B52E
:101D10000646012040040D46814201D30020F0BD5B
:101D2000401B904200D202461446002706E0A2B2B1
:101D3000E919F019FFF7B4FF3F18241A002CF6D167
:101D40003846F0BDF29000206013005070B5EFF3FC
:101D50001085012080F31088264803F045FF0446D3
:101D6000002D1DD0012080F31088002C23D02046A8
:101D70002038C08B204988421DD16189208903F019
:101D800039FF05000ED021461031A38962892089D0
:101D9000A847002806D001280DD002280BD105E065
:101DA0000020E0E7204603F02BFF04E01148214625
:101DB0000C3003F02BFFEFF31084012080F3108828
:101DC0000C480068002802D1012003F025FF002CF8
:101DD00003D0012080F3108870BD0020FAE710B511
:101DE000BC21064803F01EFF0549012003F020FF37
:101DF00010BD0000A8050800388300000406080094
:101E00004D1D0020F8B50D46064681002B48EA8896
:101E10004458521C20686B89018F294F514300910F
:101E2000014640314A89C989511A8AB2991A89B240
:101E3000B94214D29A4212D0294603F0FFFE2D89EE
:101E40002049009803F088FE2818801C4034E08266
:101E50003002401C80B2042103F0F6FEF8BD2821B8
:101E6000304603F0F7FEF8BDF8B505468700134885
:101E70000C46C059C9880068114E02464032538949
:101E8000D2899A1A92B28B1A9BB2B34211D20B4EDC
:101E90008A420ED003F0E4FEF05905225F30611C47
:101EA00003F096FE2802401C80B2052103F0CCFE10
:101EB000F8BD2821284603F0CDFEF8BD4C030800EC
:101EC000FF7F00001027000070B516460D46104633
:101ED00003F0CCFE002869D0340A304603F0C6FE79
:101EE000012812D0A87A1E2811D029460A310E28BE
:101EF00045D019DC801E030003F0BEFE0B255829D7
:101F0000582D58315839583D5800022070BD31467F
:101F1000274803F0B7FE0021204603F0B9FE022156
:101F2000304603F091FE41E018283CD006DC102832
:101F300019D012282BD0162838D130E0522822D0C0
:101F4000D22833D127E0204603F0A8FE2EE0204619
:101F500003F0AAFE2AE0204603F0ACFE26E020466D
:101F600003F0AEFE22E0204603F0B0FE1EE0204665
:101F700003F0B2FE1AE0204603F0B4FE16E020465D
:101F800003F0B6FE12E0204603F0B8FE0EE0204655
:101F900003F0BAFE0AE0204603F0BCFE06E020464D
:101FA00003F0BEFE02E0204603F0C0FE002070BD3C
:101FB00001280000F3B581B001980C460102CA1D4A
:101FC0000E310223344803F0B7FE04700199054630
:101FD000022732488E00002C06D0042C16D0062C86
:101FE00010D0072C3FD108E0815905224968897C2F
:101FF000114069708059C77335E0084603F0A2FEAE
:10200000687030E080590F21C1732CE0044680597C
:102010004068417C012902D1007E01280FD001983F
:1020200003F096FE01210028A0590BD04268D07D14
:1020300000281CD001281AD004280DD00FE0002061
:1020400068700DE04068C27D022A01D0042A06D1E2
:10205000007C02280BD102E0107C022807D06F70B0
:10206000A1590320C873284603F078FEFEBD6970AD
:10207000F6E701460A780120042A01D900207047BA
:102080004A78002A01D0012AF8D10A79082AF5D81D
:1020900049790829F2D87047021C00002805080079
:1020A000FFB589B00D4600206946059008720B986F
:1020B000000A009003F04CFE07460B9803F0D6FD93
:1020C00000287DD00B982978000A8400764E0129DB
:1020D0005ED0042904D0062943D0072963D120E02B
:1020E000687800281BD0305910224068A91C03F0E2
:1020F0006FFD002F06D03159C87B032807D0042874
:1021000008D050E03059C07B032803D04BE00B20AF
:10211000C87348E00521009803F026FE43E0012043
:10212000B6E03059C07B0E283DD1009803F00AFE7E
:10213000002103E02A18401C9170C0B21028F9D386
:10214000688A69460883294606A8082214310230A5
:1021500003F03EFD06ABAA1C3946009803F00AFEC8
:1021600021E03059C07B0F281DD1AA1C0A210098FC
:1021700003F006FE002F04D03946009803F006FE57
:1021800011E000231A463946009803F005FE0AE0E4
:10219000012F08D10B9803F069FD01281CD00028FD
:1021A00001D0022005906846007A002811D002AACA
:1021B0000521009803F0E4FD6846027A602000E003
:1021C00007E002436846027201233946009803F093
:1021D000E3FD05980DB0F0BD3059C07B0228E2D177
:1021E0006878002851D002210B9803F02DFD30595A
:1021F00007224068A91C173003F0EAFCE8780028A1
:1022000004D130594068407C01283AD0009803F04E
:10221000C9FD002837D0297A009803F0C9FD0028AD
:1022200033D0009803F0CAFD0121009803F0CCFDE3
:1022300000282CD030594068417E00292BD0042939
:1022400029D0C17E027D1140C17630594068017F9E
:10225000427D114001776846007A0028A7D13059A5
:10226000022142680098173203F08AFD3059416814
:102270004031897B002913D004210098FFF79AFE92
:1022800091E7022004E0062002E0082000E003209D
:10229000694608728BE70021C17630594068D9E75A
:1022A0000B21C1737FE700002805080070B50446C4
:1022B000007800250D2801D00A2200E002225A49A8
:1022C0004B7A002B06D00D2804D0637C032B01D061
:1022D000432551E0097A8A4339D10D2809D00E28C7
:1022E00002D00F2803D134E0607C032804D34025BA
:1022F00042E0607C0328FAD8A07C0428F7D20A299F
:1023000008D0607C012822D0022820D060780328E1
:1023100009D811E003F05EFD012806D1607803289A
:1023200003D0002801D0492526E003F053FD002802
:1023300002D160780228F6D83020035D224620467C
:10234000E17C3132143000F019F8054614E04225E2
:1023500012E003F03FFD012807D16078052804D181
:10236000A01D03F03DFD0028DDD003F033FD002863
:1023700002D160780228D6D8284670BDFFB500206B
:1023800086B001216A461170044605910021002C97
:1023900006D0089D099A1F239A4234D9402032E082
:1023A0001C23069D079AF7E76B185E78330003F04D
:1023B00063FC1D2610101010101010101026262679
:1023C0002626262626262626262610101010101031
:1023D0002600059B03E06F46FF5CB74204D05B1EFE
:1023E0005BB2002BF7DA03E0002B01DB4A2006E0AA
:1023F000059B6F46FE54059B5B1CDBB205936B5C33
:10240000491C5918C9B2914201D20028CCD091423E
:1024100002D04A200AB0F0BD641CE4B2022CF9D20A
:102420000028B3D0F6E7000098050800F8B50C4680
:102430009549164609680125002702228B1C312880
:1024400073D012DC0C2874D008DC012821D00228BB
:1024500040D007284FD00B2869D156E010287FD0F4
:10246000112876D01228F7D18EE00123412871D0AF
:1024700008DC32286FD035286ED036286DD0402841
:10248000EAD1B3E0422869D0432868D04428E3D198
:10249000D1E006227D497E4803F0A8FC002808D040
:1024A00006227B49304603F093FB06202070002073
:1024B000F8BD754801680878C00738D0207806282C
:1024C00001D22770C4E006223046983103F080FB29
:1024D00006200EE00A786C48920728D522783E2A1A
:1024E000EFD305464A7E30465A3103F071FB286827
:1024F000407E2070A9E00878400718D5207802288F
:10250000DFD3887C3070587C7AE00A785E48120706
:102510000DD52278202AD4D30546CA7D30461A31FB
:1025200003F056FB2868C07DE3E736E001E079E080
:1025300016E00A785448D20674D52278202AC0D3EF
:1025400005460A7E3046983103F042FB2868007E3B
:10255000CFE70FE056E02AE036E03DE05AE062E0E7
:102560000878800672D520780428AAD30422304641
:10257000091D25E00878400668D52078002867D036
:10258000087D08E0227060E0087800065ED52078BB
:1025900000285DD0487D3070F4E70888C00555D527
:1025A000207804288DD3042230460C3108E00888B6
:1025B00080054BD52078042883D304223046083187
:1025C00003F006FB042094E7088840053ED52078F8
:1025D00000283DD0887D36E00888000536D5207873
:1025E00002288DD3087C3070487C09E00888C0043C
:1025F0002CD5207802288ED38231087F3070487F16
:102600007070BFE70888800420D5207800281FD08C
:10261000A03117E00888400418D52078002817D08A
:10262000A1310FE012E0088800040FD520780028BF
:102630000ED0A23106E00868C00307D52078002834
:1026400006D0A33108783070237000252846F8BDE5
:102650000425FBE770B50F480F49C4052288802583
:102660002A4322800D4A53891B0701D4401EFAD207
:102670000B4A012010600622054803F0A9FA2088C1
:10268000A843208070BD0000C0060800383E03004B
:1026900025800020A0860100D47F04002000005087
:1026A00000800040F0B5564D85B00026686D374675
:1026B0000190FEF778F90021524C002802D12079D0
:1026C000022800D10191504802685048002A0FD1D9
:1026D0000278002A0DD04E4B0122DA63DA6B002A11
:1026E000FCD101229207D2691923DB019A420ED351
:1026F000017003F081FB00287ED0E07801260028DD
:102700007AD005200007808AC00701D0042673E034
:1027100003F0F8F900286FD13E4800683F2804D143
:102720002079002801D1286D0190A17801A803F03B
:1027300069FB002860D0A17801A803F0F5F9002812
:102740005AD0344800683F2803D103F061FB0028C9
:1027500052D02D480068AA281DD0972007210125B6
:10276000AD07EA6B920A92027F1C3A43EA63EA6B76
:10277000294B80021A400243EA63E86BC002C00A98
:1027800049050843E863204804260068002807D06C
:10279000AA280FD01DE02148FEF75DFB0321DEE7EC
:1027A00001986421C00203F0D7F92179401E0CE0A2
:1027B00001210CE0019803F0E3F81949096803F0DE
:1027C0004DF803F0E4F8009021790029F0D103F0EE
:1027D00025FB1448C06A8047286B0004C00FFBD05B
:1027E00011480168C905FCD503F01EFB0520000750
:1027F0000189802291430181304605B0F0BD00007F
:1028000060020020C60608000C8000200080002026
:10281000C000004060010020FF03E0FF0112000043
:10282000188000201C0708000002004010B5012499
:10283000A407A06BFEF71BFB5D4903F08DF927226F
:102840001201511A00D101215A4A50601160206BC7
:10285000082188430843206310BD38B500200524B3
:102860002407009021883020014321802188032201
:102870001143218002E000BF00BF00BFA18A09060A
:10288000F9D561898908890061814B494A885208D4
:1028900052004A802188814321802088800880005E
:1028A0002080A08A400701D5FEF7A0F92089802169
:1028B00008432081208A042188432082A08A80073F
:1028C000FCD53E4841050268D20202D40A6952078B
:1028D00002D4009A002AF6D038BD10B503F0AAFA47
:1028E00003F0AEFA10BD10B503F0B0FA05200007F2
:1028F000418A802291434182314801894908490037
:102900000181304800683F2801D103F0A5FA012079
:102910008007816904221143816103F0A3FA03F067
:10292000A7FA03F0ABFA28480068AA2802D11420BD
:10293000FEF7F4F925490020087010BD10B503F02A
:10294000A3FA10BD10B501208007008A000704D546
:1029500003F0A0FA1D490320087010BD70B51C4893
:10296000008885061548AD0E446816488030006F13
:102970000078002802D1284603F092FA1548008911
:10298000124EC00507D520060BD5E00709D0284612
:1029900003F08CFA03E0200603D5E00701D0022003
:1029A0003070200403D5E00501D50120307070BDE2
:1029B0007102000040000040200000500002004072
:1029C00000330050600100200C8000202B8000208C
:1029D00000200050002C005010B50E212B4803F0B1
:1029E0006BFA2B49202003F06DFA0021202003F020
:1029F0002BF910BD70B5254D0646298804232022E9
:102A0000244803F099F90446287903F061FA2080FC
:102A1000A670204603F0A2F970BD7CB504461B4E9B
:102A20001C48318808232022C01E03F085F9048049
:102A3000054600241FE03019817A890708D5620015
:102A4000012152195180817AFD221140817203E0E7
:102A5000002061004919488060008019C0886A46DA
:102A6000801C80B201A903F039FA00982919007876
:102A7000641C8871E4B2307BA042DCD8284603F0A5
:102A80006DF90121202003F0DFF87CBD2C800020AF
:102A90008C63002006800000FFB587B00F4607203A
:102AA00069460872BD4C20206080387800250228D5
:102AB00056D82073002646E0B8194078A119059130
:102AC0008872012805D16946087A082108436946B9
:102AD0000872207B012805D96946087A102108432D
:102AE00069460872099800907000AD49001901917B
:102AF00003900023052202A9801D03F0F5F90500CB
:102B00001CD103980021C08803F0F4F9054605980C
:102B1000807A012812D1122069460874039804AB08
:102B2000C0880122401C80B2002103F0E9F903981B
:102B30009C49C088801C80B203F0E8F907206946F0
:102B4000761C0872F6B23878B04202D9002DB3D0A4
:102B500007E0002D05D10121202003F075F800E0E9
:102B600081250123202290480A9903F0E5F8057099
:102B700003F0F4F800200BB0F0BDF0B585B00D46C1
:102B800000206946854E08813380288803F0C4F907
:102B90003071FF2801D0002452E0834B89215B1C57
:102BA0009A1C7E4800F092FD52E061007B482A1991
:102BB0000E1803920491F0880327801C80B2012133
:102BC0000A3203F0AFF975480019817A012920D142
:102BD000E9780427012915D104996B4649198A8897
:102BE0001A81898801290DD1032181720398017A04
:102BF000807A814206D0F0880021801C82B267482A
:102C000000F07AFDF08802AAC01C80B2022103F015
:102C100089F96248007B01280CD9E0004119684617
:102C20000C3100F0C1FAF0886A46C01980B2072161
:102C300003F078F9A978F08803F05CF9641CE4B239
:102C40005648017BA142B0D80221202002F0FCFFAF
:102C5000002005B0F0BD70B5504D0C46287903F04A
:102C600037F92188884221D1A078297B88421DD25A
:102C7000E17864291AD840004019C088E21C801C01
:102C800080B2012103F04EF9A07829460A31415C57
:102C9000890709D540004019C0880021801C82B2F4
:102CA000284600F029FD04E08A2000E08120FFF79B
:102CB000A1FE002070BDF8B50F46384980250020E0
:102CC0000A7B09E044006118C9883B88C91C8B4213
:102CD00000D10025401CC0B23049824201D9802D6C
:102CE000F0D0401EC6B2002D0FD1787A397A00029A
:102CF0000843694608800AD0012808D08025274863
:102D0000398800792A4603F013F90020F8BD234CD6
:102D100070000019C0880A46C01C80B2022103F06E
:102D200001F96846008801281FD0A019817AFD2288
:102D300011408172F8790028E1D0184806230188F3
:102D400019482022801D02F0F7FF0446134800793D
:102D500003F0BEF8208069460988A170090AE17075
:102D60002671204602F0FAFFC9E7A019817A0222F3
:102D70001143DEE710B50878122802D14878FFF732
:102D800039FE002010BD10B5044A180A127990428D
:102D900002D10888FFF741FE002010BD2C800020E2
:102DA00048630020010200000180000010B51221DC
:102DB000244803F081F824491C2003F083F8002103
:102DC0001C2002F041FF10BD30B503460120002158
:102DD00003241A46CA40D20704D04D0022466D1C77
:102DE000AA401043491CC9B20929F2D330BD02469A
:102DF0000020122901D98D207047062A06D0072A03
:102E000007D0082AF8D10729F5D170470829F2D14F
:102E100070470629EFD3704770B50A4C05462188E4
:102E200002231C22094802F087FF058002F096FF6A
:102E3000E088002103F05EF801211C2002F004FF6D
:102E400070BD00003C800020006500200470000080
:102E5000FEB53B4E1C2070801D4617463446088840
:102E6000FFF7B2FF02903748334601900833132230
:102E700002A90097A01D03F037F8040008D1F088DC
:102E8000002103F037F8044601211C2002F0DCFE8B
:102E900001231C2229462C4802F04EFF047002F048
:102EA0005DFF0020FEBD70B50C4625490B802078E3
:102EB000082814D8CA880831415C51188DB2822D77
:102EC0000BD06178FFF793FF010009D16D1C617889
:102ED000A8B2A21C03F026F808E0822100E08121BC
:102EE000194B17485B1CDA1C00F0F0FB002070BD8A
:102EF00070B51D460C46088803F00EF8104AFF28EE
:102F00001071158009D0A178D08802F0F3FF02215A
:102F10001C2002F099FE002070BD0B4B89219B1CE8
:102F20009A1C074800F0D2FBF5E710B5044A180ACE
:102F30001279904202D10888FFF76EFF002010BD81
:102F40003C800020EC6300200170000010B50C21D3
:102F5000254802F0B1FF2549102002F0B3FF0021FF
:102F6000102002F071FE10BD70B506461E480D46D9
:102F700014460188042310221D4802F0DDFE04805F
:102F80008670C57002F0EAFE70BD7CB5164C064630
:102F9000E088002102F0AEFF2089002802D0002145
:102FA00002F0A8FF6089002802D0002102F0A2FFF1
:102FB0000F48218804231022401E02F0BDFE054662
:102FC000E0886A46801C80B201A902F087FF2E804B
:102FD00000980078A870284602F0C0FE0121102059
:102FE00002F032FE7CBD000050800020D46500203D
:102FF00002400000FFB5674C83B010206080664837
:1030000016460F4600230092019003221946A01D88
:1030100002F06AFF0546E088002102F06BFF387875
:10302000C0071CD05D4801900023204603221946AA
:103030000096083002F058FF2089002102F05AFF64
:1030400057480190002320460322194600960A3073
:1030500002F04AFF05466089002102F04BFF002D77
:1030600003D10121102002F0EFFD012310224D4871
:10307000069902F061FE057002F070FE002007B0B4
:10308000F0BD70B5434C0D462380088802F044FF24
:103090002071FF2823D0A978E08802F02BFFE08878
:1030A000EA1C801C80B2012102F03CFF208900282C
:1030B00002D0A97802F01EFF6089002809D0801C88
:1030C00080B22A1D012102F02DFFA978608902F04B
:1030D00011FF0221102002F0B7FD002070BD012376
:1030E0009B035A1D89212B4800F0F0FAF5E770B5D3
:1030F000284D0C4629798022180A88422AD1E9886D
:103100002088891C884201D1012604E02989891C74
:1031100088421FD10226217A02290AD82246083283
:10312000012102F0FFFEE079002801D0022E03D039
:103130000022012E0AD00DE0287902F0C9FE237A80
:10314000024631461846FFF70FFF03E02188287931
:1031500002F0EEFE002070BD1CB50E480C46027950
:10316000190A914214D1A17813290ED016290CD036
:10317000C0886A46801C80B201A902F0AFFE0098A8
:10318000228800780121FFF7EFFE2088FFF7FDFE7F
:1031900000201CBD50800020506500207465002078
:1031A00098650020044000000A7902704A79427054
:1031B0000B8883701B0AC3708A7902714988417138
:1031C000090A8171704710B5428800791C460102D6
:1031D0000823FE480C3102F0AFFD082101700121E7
:1031E000417000218180C180448002F0B7FD10BD94
:1031F00010B50C460988002910D0428800790623B2
:103200000102F2480C31401D02F096FD10210170C0
:10321000218841806188818002F0A0FD10BD10B539
:103220000C460988002910D0428800790623010243
:10323000E6480C31401D02F07FFD1121017021880C
:1032400041806188818002F089FD10BD10B54288FF
:1032500000790C460102DD480823401F0C3102F0C2
:103260006BFD02460320107001205080801E90806C
:10327000022050709471210AD171104602F06EFD47
:1032800010BD10B5428800790C460102CF480823D2
:10329000401F0C3102F050FD042101702188418053
:1032A000618881800221417000218171C17102F029
:1032B00055FD10BD10B5428800790C460102C34887
:1032C0000823401F0C3102F037FD052101702188D1
:1032D0004180618881800221417000218171C1712A
:1032E00002F03CFD10BD70B50D4609886A796B8807
:1032F0008A1801790024090240880C31521E5B1C97
:103300009A4216DB0246B1480823401F02F014FD22
:103310000146072008706A88521C4A8028886A790A
:103320008218521E8A80022048708C71CC71084627
:1033300007E00A46014603200223000302F0FCFCDA
:10334000447002F00BFD70BDFFB50E461946428871
:103350001D460A3100798BB201029C4881B0801C65
:103360000C310A9F02F0E8FC002181800181077086
:1033700046800446C5800120607020462A460A30F7
:10338000039902F025FC204602F0E8FC05B0F0BDF0
:103390001CB56B461A71120A5A710C220092022354
:1033A00001AAFFF7D1FF1CBD70B5054600200346FA
:1033B0000EE006245C430E5B002E0ED09E00B61875
:1033C0006418F6782479A64300D085205B1CDBB214
:1033D000AB4201D20028ECD070BD9C00A418A478A8
:1033E000FF2CF3D18320F1E7F0B505460020044619
:1033F00011E066008E5B002E0BD1A600B618B778E0
:10340000FF2F06D1F67806277E439E5B002E00D064
:103410008320641CE4B2AC4201D20028E9D0F0BDA4
:10342000FFB581B015460F4600240A9E26E0049899
:10343000A100425A7179B01D02F080FD00281BD016
:1034400020460622318850432952728841194A8009
:1034500032790A712B5C019AD21A521C4A710B996B
:103460000978A14206D006225143285C6A5C801A82
:10347000491948710B980470641CE4B2BC42D6D35D
:1034800084E7FFB581B01D4616460746002416E0C6
:10349000A0008119CA780A998A420ED1325AA978B5
:1034A000E81C02F04BFD002807D002996000095A81
:1034B000002902D102992A880A52641CE4B2BC4253
:1034C000E6D363E7F8B500240546002815D0404848
:1034D000C069884211D9286800280ED08F00C659CB
:1034E000002E0AD0002A01D030469047304602F024
:1034F0002BFD29680020C85100E081242046F8BD3A
:1035000070B58124054600281DD0314EF0698842EF
:1035100019D92868002816D02846FFF7D3FF0400E1
:1035200011D10146F26904E08B002868491CC0589B
:10353000C9B28A4202D90028F6D004E0002802D19C
:10354000284600F059F9204670BD02460020002AA6
:1035500002D0080A800010587047FFB581B00746B6
:103560001E460D46039802F081FBB0421CD038681D
:103570000399FFF7EAFF040016D06288218804232C
:10358000284602F0D9FB05460A98288060880B9AE5
:10359000010A3846FFF7B4FFA870284602F0DEFBA8
:1035A0003146039802F050FBF0E6F8B50C79154669
:1035B0000E460746FF2C20D07088010AA1420DD08C
:1035C0002102C0B201433288284603E007300000E0
:1035D000E001002002F0BEFC8C250FE01A462146D7
:1035E000384600F013F9050008D13868A1004058AA
:1035F0000622314602F0ECFA00E089252846F8BDA3
:10360000FFB507460068984D81B00E4600280ED0E1
:10361000002406E0214638460A9AFFF753FF641C4F
:10362000E4B2E869A042F5D8384600F0E5F8F0B217
:10363000049902F047FC002406E02002304303997D
:1036400002F002FB641CE4B2E869A042F5D89DE6F2
:10365000FFB581B01F4615460C4608460A9E02F08B
:1036600005FBA84208D13946204602F0EDFA210AAE
:1036700032460198FFF744FF88E6FFB581B0074660
:10368000039800251E460C46002800D1B5887A888C
:103690002846083083B23988204602F04DFB0446A4
:1036A000387902F015FC20800398A071002060801A
:1036B000A580002E06D0308860802A46B11DE01D0E
:1036C00002F086FA204602F049FB5FE6F8B51446A0
:1036D0000F461E460546428801880623204602F012
:1036E0002BFB0446287902F0F3FB208027716680CB
:1036F000204602F033FBF8BD70B5144642880079CD
:103700000D460102042359480C3102F015FB002D2F
:1037100001D0132100E012210170448002F01EFB51
:1037200070BD0A880270120A42708A788270CA7864
:10373000C2700A7902714A794271897981710720D0
:1037400070474278037812021A430A8082788A709E
:10375000C278CA7002790A7142794A718079887197
:103760000720704710B5FFF721FB00F081F8FFF745
:10377000EDFB00F0A3F9FFF72FF910BDF8B50646F1
:1037800017460C46102002F071FA022805D1E2B269
:1037900010233946304602F0E3FB362002F066FA89
:1037A000022805D1E2B236233946304602F0D8FB72
:1037B00035021135284602F059FA002805D0E2B248
:1037C0002B463946304602F0CBFB1C2002F04EFA65
:1037D000022805D1E2B21C233946304602F0C0FB74
:1037E000202002F043FA022805D1E2B22023394614
:1037F000304602F0B5FBF8BD10B50446006800285D
:1038000003D002F0A1FB0020206010BDF7B50546F3
:1038100000680024144E0F4600280BD1F0690121E6
:10382000800002F0A3FB286000280BD0F16989001A
:1038300002F0F8F9F069B84212D92868BF00C059FF
:10384000002801D089240CE00121029802F08EFBAF
:103850000600F7D0029902F02FFB2868C65100E05D
:1038600081242046FEBD0000E00100200D30000054
:1038700008B5002002460090214B11212148FFF796
:10388000BFFE08BDF8B516460C4607464A880988AB
:103890000E231D4802F050FA0546207902F018FB6D
:1038A0002880AE70002E0BD0002000900346618867
:1038B00001221448FFF7CCFE284602F04FFAF8BD6B
:1038C00039460A220831281D02F082F96088022157
:1038D00002F0BAF9F0E770B50E4604464288018856
:1038E00009480423801C02F027FA0546207902F0DB
:1038F000EFFA2880AE70284602F030FA70BD000062
:103900002466002060800020014400007CB51E4633
:1039100015460C46088802F0FFFA01466846017118
:10392000458006801423224669465F48FFF73DFE26
:1039300002468C2804D0002A04D06946002013E0F7
:1039400001207CBD584829460068FFF7FEFD064669
:10395000A07800280BD030460A22211D083002F042
:1039600037F9002269463046FFF78CFF09E04F4CDB
:1039700030462146FFF76AFCF4800121284602F018
:1039800063F900207CBD10B547480C46114600681D
:10399000FFF7DBFD2188018161884181C17C491CE1
:1039A000C174002010BD1CB53F480C46114600688C
:1039B000FFF7CBFD024612300094019050893C4B3A
:1039C00001210C32FFF72CFD00201CBD38B5364814
:1039D0000D4611460068FFF7B8FD0446007902F075
:1039E00077FA2988884206D1A878002809D00128CA
:1039F00007D0022805D081212046FFF76CFF002068
:103A000038BDA089002808D00D200090E18901234D
:103A1000AA1C2046FFF798FCF1E78221ECE770B57D
:103A200014460D46104602F021F906461E4821466E
:103A30000068FFF78AFD0446012E27D168780A281E
:103A400001D0002822D1E08818491A4D884210D1AF
:103A50002089002804D0E07C012803D9842211E0C9
:103A600083220FE0214608312046FFF723FCE58042
:103A70000CE0A8420AD121460D4A0C310120FFF783
:103A800093FC024621460846FFF7FCFE002070BD6D
:103A90001CB5088800230090074901930248FFF7EE
:103AA0005CFD00201CBD00006080002002180000AA
:103AB00034660020032800000244000010B50821ED
:103AC0001A4802F0F9F91A49362002F0FBF90021F0
:103AD000362002F0B9F810BD70B5144D064629889D
:103AE00018233622134802F027F90446287902F0F9
:103AF000EFF92080A670204602F030F970BD70B555
:103B00000A4D0446E888002102F0F4F909482988A2
:103B100004233622001F02F00FF9048002F01EF980
:103B20000121362002F090F870BD00006A8000206C
:103B3000EC66002005D80000FFB58BB00521C90256
:103B400068468182C91C0182FA490183FA4C3621F8
:103B500061800621992500910822002301953621D4
:103B6000A01D02F009FA05007ED1A01D01250095D7
:103B700001900222E08805AB114602F003FAE088CA
:103B8000EE4A022102F0CEF903AE01960095E088DC
:103B900004AB0222132102F0F5F902AF09200197CC
:103BA0000090E088E64B1022042102F0EBF9E54991
:103BB0006846007A48706846407A88700A466846C7
:103BC0001321808902F0AEF901960095E08804ABDC
:103BD0000222132102F0D6F9092001970090E08813
:103BE000D94B1022042102F0CDF9D8496846007A59
:103BF00048706846407A88700A4668461321808972
:103C000002F090F901960095E08804AB022213219E
:103C100002F0B8F901970095E088CD4B10220421FD
:103C200002F0B0F9CB496846007A48706846407A9D
:103C300088700A4668461321808902F073F901965C
:103C40000095E08804AB0222132102F09BF90920C1
:103C500001970090E088C04B1022022102F092F9F7
:103C60006846BE49007A00E058E048706846407AED
:103C700088700A4668461321808902F053F901963C
:103C80000095E08804AB0222132102F07BF90920A1
:103C900001970090E088B24B1022142102F072F9D3
:103CA000B0496846007A48706846407A88700A468B
:103CB00068461321808902F035F9AB4D01960095D5
:103CC000E08804AB0222132102F05CF90197009511
:103CD000E088A64B1022012102F054F9A44968465D
:103CE000007A48706846407A88700A466846132110
:103CF000808902F017F909A9092001910090022298
:103D0000E08806AB114602F03DF90546E088002147
:103D100002F0F0F80121362001F096FF012336224F
:103D200094480E9902F008F8057002F017F8002088
:103D30000FB0F0BD3EB5804C0D46E08802AA0C30B5
:103D400080B2694602F0CAF8E08801AA0D3080B25C
:103D5000694602F0C3F8E088AA1C0C3080B2012149
:103D600002F0E0F801980088002806D0E0880021E1
:103D70000C3082B22046FFF7BFFC00203EBD10B5DC
:103D80006D480A46C0880421801D80B202F0CAF83E
:103D9000002010BD38B50D4600206946664C0880ED
:103DA0002380288802F0B8F82071FF2817D0E08817
:103DB0006A460D3080B2022102F0B4F8E0886A460B
:103DC0000C3080B2012102F0ADF8A978E08802F051
:103DD00091F80221362001F037FF002038BD654AF6
:103DE0001B23DB02521C89215348FFF76FFCF4E7C9
:103DF000F8B5514D0C4629798022180A88427DD1A8
:103E0000E988208826468B1C0027083698420ED168
:103E1000012100916188324602F084F8E07900289F
:103E200075D05448082336222988C01F10E00B1D86
:103E3000984229D1022100916188324602F072F83D
:103E4000E079002863D04B48298808233622801F58
:103E500001F072FF0646287902F03AF83080776068
:103E6000E07A01067160A07A000401437160607A13
:103E7000000201437160207A014371600098B070C4
:103E8000304601F06BFF42E00B460A3398421BD1EB
:103E900004200090E079002839D03648298818237A
:103EA0003622001F01F048FF0746287902F010F87B
:103EB000388062883146381D01F08AFEA078F8709B
:103EC0000098B8703846DCE70B460833984220D19A
:103ED000032100916188324602F024F8E07900283D
:103EE00015D02448298806233622401F01F024FFDC
:103EF0000646287901F0ECFF308000E018E0B7803A
:103F0000607A0102B180207A0143B180B6E70022D5
:103F100007E00D31884204D16188324602F002F890
:103F2000F5E7A079012803D12188287902F000F86B
:103F30000020F8BD022900006A8000208866002069
:103F40008A6600209C6800209A660020AF680020E6
:103F5000AA660020C2680020BA660020D56800204A
:103F6000CA660020E868002001020000DA6600202E
:103F7000FB68002009D8000010B5054A180A12791C
:103F8000904202D10888FFF7BAFD002010BD000062
:103F90006A80002038B50124684604700C21494825
:103FA00001F08AFF474D6946EC702A1D352001F06B
:103FB000EFFF002800D02C7100F014FD42493220A0
:103FC00001F080FF0021322001F03EFE00F0B2F847
:103FD00038BD10B500F0CCFD10BD10B53948022336
:103FE00080783222010239480E3101F0A5FE01210C
:103FF00001701321417001F0B1FE10BD10B50446EF
:1040000030482C2380783222010230480E31801E45
:1040100001F092FE014620300472002242720846EE
:1040200001F09CFE10BD10B5502332220D2128480E
:1040300001F082FE044600F01CFD204601F08EFED9
:104040000221322001F000FE10BD214810B50123ED
:1040500032220D210B3801F06FFE0221017001F0B8
:104060007DFE10BD10B500F0A5FD10BD194B10B5BB
:104070009A4201D91A4602E0002A00D1012201F039
:104080008DFF10BDF8B50646114815460F4625238D
:1040900032220D21C01C01F04FFE04460120207782
:1040A0002046062239461D3001F092FD2320065598
:1040B00065822582204600F0ACFD204601F04EFED0
:1040C000F8BD0000748000204C6700200438000018
:1040D0000E3400003075000010B501F065FF254971
:1040E00001F07CFD2448081810BDF8B5234D0646A4
:1040F000A876002401F058FF2919641CE4B2087462
:10410000082CF7D300241027381BB04201DD002013
:1041100007E001F049FFC117090E0918090A090251
:10412000401A2855641CE4B2102CEDD301F03CFF7A
:104130002883F8BD10B52421104801F0BDFE00F021
:1041400060FC10BD10B50E480223807832220102B7
:104150000C480E3101F0F0FD0D21017007492031AE
:104160008978417001F0FAFD0321322001F06CFDE5
:1041700010BD0000A0BB0D00A086010080800020C3
:10418000748000201A38000010B5084609781C46D3
:104190000B0001F071FD080520202008181B1E20CF
:1041A00000F03AFD17E04178012904D0002902D03F
:1041B000022903D00FE000F047FD0CE01146204635
:1041C00000F0A9FD07E000F05DFD04E000F05BFDFC
:1041D00001E000F075FD002010BD10B50878304CEE
:1041E000801E030001F048FD020214188878A070B8
:1041F000C0070AD02B492A4A4879203AD076284865
:104200000622001F891D01F0E3FC00F07FFD03E0A2
:10421000FFF7E3FE0020A070002010BDF8B518469F
:104220000D4601461223204801F086FD044628462B
:1042300000F06DFD0027002821D0194EB078C0078E
:104240001DD030460822A91C103801F0CFFD0028EF
:1042500015D130462038018B2A8891420FD1012197
:104260002170807E6074314610222039601C01F07C
:10427000AFFCB078FFF7C2FE00F04CFD00E0277005
:10428000204601F06BFD2078002801D1FFF7A5FE44
:104290000020F8BD10B500F03CFD002010BD00006E
:1042A000A0800020748000201838000010B510464F
:1042B00001F0DCFC002809D1012332220D214848FD
:1042C00001F03AFD0121017001F048FD002010BD10
:1042D00070B5087815460F282DD008DC01280DD0C0
:1042E00002282CD003281CD00E2830D11FE0102823
:1042F00025D0112823D0122829D123E0487800287E
:1043000025D13748222332220D21801C01F014FDD3
:1043100004460146284600F04EFC204601F01EFDF2
:1043200015E04878002812D100F059FC0FE04878D9
:1043300000F062FC0BE0487800F065FC07E000F05C
:1043400067FC04E04878442801D100F064FC0020B8
:1043500070BD70B51C4610460D4601F087FC022862
:1043600005D12049200A8870284600F04EFB002025
:1043700070BD70B5087815460C460A2810D1104655
:1043800001F074FC04280BD16078002802D000F002
:1043900010FC05E00521284601F056FC00F02BFC3E
:1043A000002070BD10B5104600F0D3FB002010BDFA
:1043B00010B510460C4601F059FC012808D12078B0
:1043C000002805D1FFF705FE002801D000F01CFCF5
:1043D000002010BD10B5084600F01CFC002010BDE8
:1043E000023400007480002010B520210323322203
:1043F000880201F0A1FC012101704170002181704F
:1044000001F0ACFC10BD10B50120FCF7EDFF4849F0
:10441000087010BD10B504464548C1700271437163
:104420001C2332222021434801F086FC424901230B
:10443000098801808370C37000228280C280047268
:1044400042728472C2723D4C8481C281042404741D
:104450004274837401F082FC10BD70B5344C0125A8
:104460006570E078002803D06179207901F066FE5C
:10447000A570C82232213248FFF7F8FD70BD10B593
:1044800004462C48042332222021C01C01F054FC95
:1044900029490988018000218170C47001F05EFC07
:1044A00010BD70B50120FCF79FFF214D0446287810
:1044B000844202D02046FFF7E2FF2C70E878002803
:1044C00003D0052C01D2FFF7C8FF70BD10B5184905
:1044D0000A22C8801A483221401EFFF7C7FD10BDCE
:1044E000174810B53221401E01F0CCFB10BD70B54D
:1044F0000F4C00256570E078002803D061792079A1
:1045000001F03EFEA57032210D4801F0BBFB70BDED
:1045100010B50748C178002906D081780129417972
:10452000007902D001F02CFE10BD01F007FE10BD95
:10453000A68000200280000074800020AD270000CB
:1045400003C8000010B532220C4601231146900228
:1045500001F0F2FB2178017001F000FC002010BD99
:10456000002070470020704710B51446FFF799FFF0
:104570001448214602881448FFF778FD002010BD3A
:1045800070B5124815460078002818D0104C114913
:1045900011480D4E2278761C09780078002A05D043
:1045A00001F0EEFD00202070142204E001F0C6FDB1
:1045B00001202070052229463046FFF757FD0020D4
:1045C00070BD0000AC80002002C80000A98000205F
:1045D000A8800020AB800020AA800020704710B582
:1045E00011210E233222880201F0A6FB0B49098813
:1045F00001800021817001F0B1FB10BD10B50423D2
:1046000032221121064801F097FB044909880180F4
:104610000221817001F0A2FB10BD00007480002017
:104620000444000000207047354A107251727047F0
:1046300010B533480021417101600171417A007A5F
:1046400001F09EFD32212F4801F01CFB10BD10B57A
:10465000102106233222880201F06EFB0446FFF788
:10466000E7FF29482649008820800120A07088792A
:10467000E070C8792071204601F070FB10BD10B5C4
:104680001F4C012860710ED0322020600120207163
:10469000617A207A01F052FD2088322182B21948D5
:1046A00001F07CFC10BD9620EFE710B50423322208
:1046B0000121164801F040FB1349098801800021BF
:1046C000817001F04BFB10BD10B501233222102187
:1046D0000F4801F031FB0121017001F03FFB10BDDB
:1046E00010B5FFF7A1FF064801790129417A007A48
:1046F00002D001F045FD10BD01F020FD10BD00000D
:10470000B080002001C80000748000200F04000069
:104710000340000010B510460C4601F0A7FA01282E
:1047200009D1322201231146900201F005FB2178C4
:10473000017001F013FB002010BD20480A8800889A
:10474000904202D188781E4988710020704710B5C8
:104750000A781B48002A01D0002105E0174A4B883F
:1047600012889A4201D10979C171FFF770FF0020C8
:1047700010BD10B58878002802D0FFF780FF01E057
:10478000FFF756FF002010BD70B50D4C15462146B1
:104790002279087A497A002A03D001F0F1FC00203E
:1047A00002E001F0CBFC012020712088294682B272
:1047B000044801F0F3FB002070BD0000748000206D
:1047C000B080002001C80000704710B51C210223F2
:1047D0003222880201F0B0FAFF217431018001F029
:1047E000BDFA10BD10B50446042332221C21054831
:1047F00001F0A2FA0480012181700021C17001F052
:10480000ADFA10BD03700000FEB510460D4601F074
:104810002DFA01287ED12878002879D10E23322262
:104820001C21434801F088FA0446002020700B2721
:1048300067703A463FA1A01C01F0CAF9204601F07A
:104840008DFA0A2332221C21394801F075FA0446F8
:104850000120207007206070024639A1A01C01F0E1
:10486000B7F9204601F07AFA0B2332221C21304896
:1048700001F062FA0446062020700826667032466F
:1048800031A1A01C01F0A4F9204601F067FA0E2323
:1048900032221C21264801F04FFA044605202070E0
:1048A00067703A462BA1A01C01F092F9204601F056
:1048B00055FA09270C2332221C211D4801F03CFA2D
:1048C00004460420207067703A4625A1A01C01F020
:1048D0007FF9204601F042FA0A2332221C211448B3
:1048E00001F02AFA04460670072060700120A070CB
:1048F000D221684601800B21C9014180710181806C
:1049000006226946E01C01F063F9204601F026FA10
:10491000012300E008E032221146900201F00CFA77
:104920002978017001F01AFA0020FEBD00207047BE
:10493000027000004469616C6F672053656D690007
:104940004441313435383000123456FFFE9ABCDE13
:1049500000000000765F332E35302E312E353400C6
:10496000765F332E302E362E3000000010B5FB4817
:1049700001F0A6FC0121084601F070FB002805D0DB
:104980000122500200230146FCF77DFC10BD10B54A
:10499000F3484079002802D0FFF74AFE06E01120D4
:1049A00001F064F9022801D1FFF728FE0520000775
:1049B000808A400701D5FCF719F9FBF7F4FF0028BE
:1049C0000DD0FBF79CFFE74881680122114381600D
:1049D000FBF7E5FF00223221E34801F0EBFAFFF795
:1049E000C5FF10BD10B507210020FFF71DFEDC49F3
:1049F00002208871FFF707FDFFF7E6FE00F0DAF905
:104A000010BDDA4801218170704770B5D84C054659
:104A1000A078FF282AD0FFF71AFED64801220023EB
:104A200011460078FFF7F6FCD348FFF74FFDFFF77C
:104A3000D6FD2088FFF7D6FE00F0DAF905213220F6
:104A400001F002F928882080687A607129460622E0
:104A50000A31A01D01F0BCF8C4488078FFF7CEFAF7
:104A6000C1483221401E01F00DF970BDFFF7DBFA9D
:104A700070BDF0B5044693B00E2020700020607029
:104A8000BE48A081E08107202074012060741C20B2
:104A9000E074254622461F2020351432287416461D
:104AA000511E0B2001F074FA0A27002805D03A465F
:104AB000E774B3A1304601F08BF822463132511E23
:104AC0000C20119201F064FA002805D02F743A46A8
:104AD000AEA1119801F07CF8E07C1A21081A45B2C9
:104AE000002D2EDD3E206946087001AA022001F04B
:104AF0004FFA002806D00B2268460270A6A101A832
:104B000001F05EFA6846007800281AD0A84200D268
:104B1000054669460D70E07C6D1C8555E27C20469B
:104B2000092115301154E17C401C081869460A78A7
:104B300001A901F04DF869460878E27C801C101844
:104B4000E0748948974A3221401EFFF78FFA13B06C
:104B5000F0BD10B501F08AF80446FFF7C1FC032C44
:104B600003D0052C01D0042C01D1FFF75CFA10BD55
:104B700070B57F4D0024E878052817D201280CD0A5
:104B8000022804D0032805D004280BD108E0FFF741
:104B90009BFD07E0FFF728FC04E0FFF716FE01E0AD
:104BA00000F01AF9E878401CE87000E00124204683
:104BB00070BD70477047032008700A2048700020BD
:104BC0004882087548751722CA8208220A83102273
:104BD0004A8388836422CA8320310870704710B5E5
:104BE0000121322001F030F8FFF7F3F9002801D05D
:104BF000FFF719FA10BD70475B4810B53221401E0F
:104C000001F040F810BD704710B5FFF70CFA10BD69
:104C1000704770477047704710B51E2332220E212F
:104C2000614801F089F80121017041700022C270D1
:104C30001023437103238370017102720422827175
:104C4000C17101F08BF810BD70B51E2332220E2108
:104C5000554801F071F80446FFF73EFA0546042076
:104C60002070012060701021A01C01F025F9280E91
:104C70006071280C2071280AE070A570204601F0B0
:104C80006DF870BD704770B505461E2332220E21A7
:104C9000454801F051F804466878FFF726FA0620E7
:104CA0002070012060701021A01C01F005F906227F
:104CB0003EA1A01C00F08CFF204601F04FF870BD13
:104CC00070B505461E2332220E21374801F034F814
:104CD00004466878FFF709FA07202070234901206D
:104CE00060702039887E2077088B608220460822F9
:104CF0001031143000F06CFF1C4910222039A01C28
:104D000000F066FF204601F029F870BD70470120D1
:104D1000704770477047704710B5FFF796F9124C0F
:104D20003221641E204600F0ADFFFBF7F5FD322175
:104D3000204600F0A7FFFFF77BFCFBF72CFEFFF7F8
:104D400015FE002010BD10B5104600F08FFF0228A0
:104D500001D1FFF768F9002010BD00008F49002045
:104D6000B08000200033005005C80000A080002063
:104D700074800020A6800020701700004C04000002
:104D80000903031802180418F5FE000009FF00606B
:104D900052572D424C4500004441313435383020C3
:104DA000505852005046000014380000ABAB455537
:104DB00023010000FE480021017441618161C1604E
:104DC000FC4A01771165142101707047F8480021F1
:104DD00001744161C160704710B501233222362150
:104DE000F54800F0A9FF0021017000F0B7FF10BDE9
:104DF00010B5362110233222880200F09DFFEF49C2
:104E0000098801800121817000214160816000F0EA
:104E1000A5FF10BD10B50446E94804230288E64802
:104E20003621401E00F088FFE44909880180847023
:104E300000F094FF10BD10B5DD4C2078022801D1A0
:104E4000FCF76EFE2078032801D1FCF703FE142046
:104E5000207010BD08B5AA2168460170D4480278B8
:104E60004068132A03D0801CFCF704FF09E0811C72
:104E700001226846FCF7ADFC40B2012801D00620B3
:104E800008BD022008BD10B5C94C2078C00601D469
:104E9000012000E01020FFF7BDFF002020746061BA
:104EA000A061E060207710BDF8B50F460021060E26
:104EB000BF4C35463960142E17D2257080B2606021
:104EC000002D01D0012D07D1BE492806084361609D
:104ED000002101F07BF838602078122801D01328D7
:104EE00003D1606802280BD86074112E26D00EDC26
:104EF000022E20D006DC002E1DD0012E13D11AE088
:104F0000112022E0032E16D0102E0CD116E0FD2E1B
:104F10002CD004DC122E0ED0132E04D10BE0FE2E6A
:104F200016D0FF2E0CD00820FFF774FF142020703D
:104F300000203860F8BDFFF7A6FFF8BD082004E0A8
:104F4000FFF779FFFFF742FF0320FFF763FFF8BD8C
:104F5000207F002801D0042001E0FFF77BFFFFF74E
:104F600059FFFFF768FFFFF731FFF8BD002001F0A0
:104F700033F8F8BD10B504469148042302888E48E2
:104F80003621801E00F0D8FE046000F0E7FE10BD60
:104F9000FEB50646002001246404009001900346FB
:104FA00002460146029065123046FCF7FDFCFCF714
:104FB000D3FB854980B2401802D0012800D1840477
:104FC00029462046FCF782FAFEBDF8B5044678482B
:104FD0007E4E017A00270906090FA171027AFF436C
:104FE00013071B0FE37102891204120F227002894A
:104FF0001205120F627082681202120FA27082688C
:105000001203120FE2708268120F22718068000191
:10501000000F6071282041438A19990050580028D8
:1050200001D0384600E001205050A579E279C1173F
:1050300000F0D8FF2A0100F0D5FF654A13685568D3
:105040001843294310605160A078282148438219F1
:10505000E07881005058002801D0384600E0012057
:105060005050A578E278C11700F0BCFF2A0100F08B
:10507000B9FF574D2A686B6810431943286069606F
:1050800020792821484382196079810050580028EE
:1050900001D0384600E00120505026796279C117CE
:1050A00000F0A0FF320100F09DFF2A686B681043FA
:1050B00019432860696020782821484343494118F2
:1050C000607880000A58002A00D101270F50384626
:1050D00026786278F91700F085FF320100F082FF30
:1050E0002B686A68184311432860696001200090AA
:1050F00003263602617820780823324600F084FFC8
:1051000000250095E179A0790723324600F07CFF65
:105110000095E178A0780623324600F075FF0095EF
:10512000617920790523002200F06EFFF8BDF8B503
:1051300004461F48254F017A00250906090FA17072
:10514000017AED430907090FE17001890904090F8C
:10515000217002891205130F63708068000C606073
:1051600028204143CA1999005058002801D02846E8
:1051700000E00120505026786278C11700F032FF1D
:10518000320100F02FFF124E32687368104319434A
:1051900030607160A07828214843C119E078800010
:1051A0000A58002A00D101250D502846A77811E0A1
:1051B000BC8000201069002008D800007480002006
:1051C0006A8000205C6A0020F010FFFF2890002019
:1051D00020900020E278E91700F004FF3A0100F087
:1051E00001FF336872681843114330607160002515
:1051F00000956178207809232A4600F005FF009584
:10520000E178A0780A23002200F0FEFEF8BDF0B598
:10521000FF4D02242878E60185B000280AD0012835
:1052200008D029464A68896802282AD003284BD02A
:10523000082476E0F74F00063843002100F0C6FE50
:105240008004010C287C4218B24248D8711A091A0D
:105250008AB2F14941183846FC38801805E00A68DE
:1052600004C02A7C121F2A74091F2A7C002AF6D146
:10527000287800210006384300F0A8FEFFF77AFEE8
:105280004BE001204006104300F0A0FE8004070C14
:10529000287CC019B04222D802A8FFF748FF039823
:1052A000012380B200220221FCF714FC68682A7CEA
:1052B000C119D948001DFCF72AFD297C814200D084
:1052C0000624FCF737FC1DE003200006104300F025
:1052D0007DFE8004070C287CC019B04201D9072448
:1052E0001FE06846FFF771FE6846FFF751FE6868E9
:1052F0002A7CC119C848001DFCF76BFA297C814241
:1053000000D006242878696800060843A96800F0E0
:105310005DFEFFF72FFE022C03D1FFF78CFDFFF798
:1053200055FD2046FFF776FD05B0F0BD70B502468D
:105330000020160BC04336030C0B090500D0641C7B
:10534000002C01D000250BE001240025202130464F
:10535000FCF7D9F9012109037618002802D16D1C48
:10536000A542F3D370BD0021FF2802D0401CC0B27B
:10537000704708467047FF2802D0FF2905D006E095
:10538000FF2908D0002906D001E0002801D088427A
:1053900001D9022070470120704710B59C4B1B7843
:1053A000132B02D0FCF744FC10BDFCF754F910BDE0
:1053B000F7B59CB000271E980C463E46402805D302
:1053C0002078702802D16078512802D012201FB0B6
:1053D000F0BD65688E492846403008621F210C22C6
:1053E000090301A8FFF7D9FF0C2847D168460079C7
:1053F000702803D168464079522801D01420E6E78E
:105400000298129003981390002D03D01299401A1D
:10541000A84201D21320DAE701A840221190FFF739
:10542000BCFF40282AD16846C0791590684681792A
:1054300004A8189020460C301790AA2907D1684676
:105440000079702803D168464079512803D001279C
:10545000002015900BE010221899179800F0C6FC58
:10546000002804D1E0690899884200D1022740222F
:1054700013991198FFF791FF402801D01620A6E755
:105480006846C079009068468079AA2807D16846A6
:105490000079702803D168464079512803D001264D
:1054A000002000900BE010221899179800F09EFC45
:1054B000002804D1E0690899884200D102261C988E
:1054C000002801D0022807D9012F11D0012E1CD0AD
:1054D00000991598FFF74FFF1790FF22402101A870
:1054E00000F086FD1798022815D0022F2BD004E07B
:1054F000FF22402101A800F07BFD45491298486039
:10550000002E22D0022E20D00EE0FF22402101A842
:1055100000F06EFD01E0022E15D03D491398486061
:10552000002F0ED0022F0CD00126394F38781328C7
:1055300010D0402201A87968FCF7E9FB40283DD152
:105540000FE0159802E0152041E70098FFF70BFFE8
:105550000646EAE74035A9B27868FFF7E7FE00287B
:105560002CD16846C67160680290A06803902046FE
:105570000C300EC8A069079004A80EC0E06908901E
:10558000217868460171617841712020015D08A889
:10559000017120461E9C39784030403C13297968BF
:1055A00022460DD04031FCF7B2FBA04206D140228A
:1055B00079681198FCF7ABFB40280CD0062006E771
:1055C0004031FCF706F9A042F8D1402279681198E1
:1055D000FCF7FFF8F0E70020F9E6F0B50C4C0E4AB6
:1055E0000225002085B05432616904E0237F165CF7
:1055F00073402377401C8142F8D820780026122877
:105600000CD0132838D00825E8B2FFF703FC8BE64E
:10561000BC8000205C6A00200C69002002A8FFF713
:1056200086FD0398012380B200220221FCF752FA82
:105630006269002A02D0A069002811D0A069216AFD
:1056400082184B1C9A4240D88A4201D9091A6161DA
:1056500061682746091826486269FCF758FB28E06C
:10566000607C2349FFF7A4FE002829D085B266613B
:10567000A069FFF77FFCC7E76846FFF7A6FC68460E
:10568000FFF786FC6269002A02D0A0690028E7D0F3
:10569000A069216A82184B1C9A4216D88A4201D905
:1056A000091A616161682746091811486269FCF7A7
:1056B00090F87969814208D1B8694018B861D6E795
:1056C0006269A1698918A161D1E70625CFE770B5A4
:1056D000084C094D2146284600F078FC0104090CCD
:1056E00005D083B2024A2146284600F087FC70BDEF
:1056F00060690020000306050028000310B510466D
:105700000C4600F0B3FA012809D1322201231146D8
:10571000900200F011FB2178017000F01FFB0020C7
:1057200010BD70B54A4C0D46207814283DD2A9789A
:1057300000293CD0E168002933D0C00618D4207C71
:10574000EA78811850292ED842494018291D00F0C6
:105750003FFA207CE9784018C0B22074E1688142A9
:1057600001D1FFF754FD207C18E0FFF753FB1EE04A
:10577000EA786069FF2381180133994213D83649CA
:105780004018291D00F024FAE9786069401860612A
:10579000E168814201D1FFF720FF6069E16888423A
:1057A00005D90520E1E70720DFE70820DDE7002035
:1057B00070BD08B58878002806D048686946FFF7AC
:1057C00073FB0098FFF7D6FB002008BD10B5887862
:1057D00000280ED01E4A49689160107802280AD02D
:1057E000032808D0122804D0132802D00820FFF77D
:1057F00011FB002010BD52680006104300F0E6FBCC
:10580000FFF7B8FBF5E770B588780D4600281DD086
:10581000A888002805D00E4C2178CA0603D4820738
:1058200001D005200EE0142910D2C90605D4502855
:1058300007D8FFF7CBFAA88807E0FF21013188429B
:1058400003D90720FFF7E6FA00E0E060002070BD12
:10585000BC8000201069002060690020024670B5FD
:105860004A40D30FDB0740002DD04A002AD0010E5A
:10587000140E000212020919400A520A8418E501A6
:1058800004465443000A120A2E045043A419421934
:10589000200CC543AA18120C0125AD03521C521945
:1058A00012047F39240400D0521C104301D440005C
:1058B000491EC2B20C06C0092018401C4008802AAC
:1058C00002D003E0002070BD40084000002900DA4B
:1058D0000020184370BD70B502464A40D50F400005
:1058E0004A00ED0740085208002814D0002A12D0C0
:1058F000C40DD30D41020120C0055202490A520ACB
:10590000E41A091812187D34914201D3641C00E096
:105910004900002C01DA002070BD0023914201D320
:10592000891A0343400849000028F7D100290AD00A
:10593000914202D10121C90705E0914201D2012122
:1059400001E00121C943E005C018401900F063F8E7
:1059500070BD420005D04200120E52428A4201DB65
:1059600000207047C90508187047C217C10F504082
:1059700010B54018CA079623002100F054F810BD56
:1059800010B500229623114600F04DF810BD4100DD
:1059900040020122400AD205090E80187F2901DA4F
:1059A00000207047962903DC9622511AC8407047A0
:1059B000963988407047C20FD207400040080BD08C
:1059C000C10D0723DB01C91840020905400A114334
:1059D000C208400711437047002001467047CB0FB3
:1059E000DB07490010B5490802460A4307D00A0DF3
:1059F00007240903E401090B121B002A01DC002023
:105A000010BDC900440F0C43C100E018D205801836
:105A100000F001F810BD002904DA401C490001D152
:105A200040084000704770B40024050C05D11024D4
:105A3000000402D1002921D01124050E01D1000259
:105A40000834050F01D10001241D850F01D180000C
:105A5000A41C002801DB4000641C002908D020257C
:105A60002E1B0D46F540A14000D0012129430843DB
:105A700001061B1B000ADB1D02D5002070BC70470D
:105A8000DB05181880180029F8DA401C4900F5D108
:105A900070BC400840007047064C0125064E05E0EA
:105AA000E36807CC2B430C3C98471034B442F7D33F
:105AB000FAF7CAFC5C6800209C68002003B4014827
:105AC000019001BD551B020003B40148019001BDC6
:105AD0000F3B030003B40148019001BDCF2B03002D
:105AE00003B40148019001BDCB2C030003B401486D
:105AF000019001BD0990020003B40148019001BD6D
:105B00001F21020003B40148019001BDC12D030013
:105B100003B40148019001BD0921030003B4014809
:105B2000019001BDC92D030003B40148019001BDDE
:105B30002B69020003B40148019001BDEB31030061
:105B400003B40148019001BD3D32030003B4014894
:105B5000019001BDD721030003B40148019001BDAC
:105B6000A73A030003B40148019001BD913B030033
:105B700003B40148019001BD2F2F030003B4014875
:105B8000019001BD998F020003B40148019001BD4D
:105B9000938F020003B40148019001BDCD8C020037
:105BA00003B40148019001BD418F020003B40148D4
:105BB000019001BD2768020003B40148019001BDB6
:105BC0003968020003B40148019001BDB7800200AA
:105BD00003B40148019001BD213B030003B4014817
:105BE000019001BDD33A030003B40148019001BD07
